{
    "tests/shanghai/eip3855_push0/test_push0.py::test_push0_contracts[fork_Cancun-state_test-before_jumpdest]": {
        "env": {
            "currentCoinbase": "0x2adc25665018aa1fe0e6bc666dac8fc2697ff9ba",
            "currentGasLimit": "0x044aa200",
            "currentNumber": "0x01",
            "currentTimestamp": "0x03e8",
            "currentRandom": "0x0000000000000000000000000000000000000000000000000000000000000000",
            "currentDifficulty": "0x00",
            "currentBaseFee": "0x07",
            "currentExcessBlobGas": "0x00"
        },
        "pre": {
            "0xa94f5374fce5edbc8e2a8697c15331677e6ebf0b": {
                "nonce": "0x00",
                "balance": "0x3635c9adc5dea00000",
                "code": "0x",
                "storage": {}
            },
            "0x0000000000000000000000000000000000001000": {
                "nonce": "0x01",
                "balance": "0x00",
                "code": "0x6004565f5b60015f5500",
                "storage": {}
            }
        },
        "transaction": {
            "nonce": "0x00",
            "gasPrice": "0x0a",
            "gasLimit": [
                "0x0186a0"
            ],
            "to": "0x0000000000000000000000000000000000001000",
            "value": [
                "0x00"
            ],
            "data": [
                "0x"
            ],
            "sender": "0xa94f5374fce5edbc8e2a8697c15331677e6ebf0b",
            "secretKey": "0x45a915e4d060149eb4365960e6a7a45f334393093061116b197e3240065ff2d8"
        },
        "post": {
            "Cancun": [
                {
                    "hash": "0xcd2bf3206a46862ff5e58c24139f5b67ee5e6ed684ea63984ca2a3f87f948d07",
                    "logs": "0x1dcc4de8dec75d7aab85b567b6ccd41ad312451b948a7413f0a142fd40d49347",
                    "txbytes": "0xf860800a830186a0940000000000000000000000000000000000001000808025a09069fab60fe5c8a970860130c49d2295646da4fff858330a1fd5d260cd01e562a07a31960780931801bb34d06f89f19a529357f833c6cfda63135440a743949717",
                    "indexes": {
                        "data": 0,
                        "gas": 0,
                        "value": 0
                    },
                    "state": {
                        "0xa94f5374fce5edbc8e2a8697c15331677e6ebf0b": {
                            "nonce": "0x01",
                            "balance": "0x3635c9adc5de996bbe",
                            "code": "0x",
                            "storage": {}
                        },
                        "0x0000000000000000000000000000000000001000": {
                            "nonce": "0x01",
                            "balance": "0x00",
                            "code": "0x6004565f5b60015f5500",
                            "storage": {
                                "0x00": "0x01"
                            }
                        },
                        "0x2adc25665018aa1fe0e6bc666dac8fc2697ff9ba": {
                            "nonce": "0x00",
                            "balance": "0x01f947",
                            "code": "0x",
                            "storage": {}
                        }
                    }
                }
            ]
        },
        "config": {
            "blobSchedule": {
                "Cancun": {
                    "target": "0x03",
                    "max": "0x06",
                    "baseFeeUpdateFraction": "0x32f0ed"
                }
            },
            "chainid": "0x01"
        },
        "_info": {
            "hash": "0x5175cc36f2762b5d18be9aad27e0fb3dae1f251510f92ac64f4e6503e1139e81",
            "comment": "`execution-spec-tests` generated test",
            "filling-transition-tool": "ethereum-spec-evm-resolver 0.0.5",
            "description": "Tests PUSH0 within various deployed contracts.",
            "url": "https://github.com/ethereum/execution-spec-tests/tree/v4.5.0/tests/shanghai/eip3855_push0/test_push0.py#L32",
            "fixture-format": "state_test",
            "reference-spec": "https://github.com/ethereum/EIPs/blob/master/EIPS/eip-3855.md",
            "reference-spec-version": "6f85bd73336de4aacfad7ac3bb3a7e1ba2d68f51",
            "eels-resolution": {
                "git-url": "https://github.com/ethereum/execution-specs.git",
                "branch": "master",
                "commit": "fa847a0e48309debee8edc510ceddb2fd5db2f2e"
            }
        }
    }
}